{
  "contractName": "TenderManagement",
  "abi": [
    {
      "inputs": [],
      "stateMutability": "nonpayable",
      "type": "constructor"
    },
    {
      "anonymous": false,
      "inputs": [
        {
          "indexed": false,
          "internalType": "string",
          "name": "tenderId",
          "type": "string"
        },
        {
          "indexed": false,
          "internalType": "address",
          "name": "bidder",
          "type": "address"
        },
        {
          "indexed": false,
          "internalType": "uint256",
          "name": "amount",
          "type": "uint256"
        },
        {
          "indexed": false,
          "internalType": "uint256",
          "name": "bidDate",
          "type": "uint256"
        },
        {
          "indexed": false,
          "internalType": "address",
          "name": "vendorId",
          "type": "address"
        }
      ],
      "name": "BidSubmitted",
      "type": "event"
    },
    {
      "anonymous": false,
      "inputs": [
        {
          "indexed": false,
          "internalType": "string",
          "name": "tenderId",
          "type": "string"
        },
        {
          "indexed": false,
          "internalType": "string",
          "name": "tenderName",
          "type": "string"
        },
        {
          "indexed": false,
          "internalType": "string",
          "name": "tenderType",
          "type": "string"
        },
        {
          "indexed": false,
          "internalType": "bool",
          "name": "isOpen",
          "type": "bool"
        }
      ],
      "name": "TenderCreated",
      "type": "event"
    },
    {
      "inputs": [],
      "name": "admin",
      "outputs": [
        {
          "internalType": "address",
          "name": "",
          "type": "address"
        }
      ],
      "stateMutability": "view",
      "type": "function",
      "constant": true
    },
    {
      "inputs": [
        {
          "internalType": "string",
          "name": "",
          "type": "string"
        },
        {
          "internalType": "address",
          "name": "",
          "type": "address"
        }
      ],
      "name": "bids",
      "outputs": [
        {
          "internalType": "uint256",
          "name": "amount",
          "type": "uint256"
        },
        {
          "internalType": "uint256",
          "name": "bidDate",
          "type": "uint256"
        },
        {
          "internalType": "address",
          "name": "vendorId",
          "type": "address"
        }
      ],
      "stateMutability": "view",
      "type": "function",
      "constant": true
    },
    {
      "inputs": [],
      "name": "tenderCount",
      "outputs": [
        {
          "internalType": "uint256",
          "name": "",
          "type": "uint256"
        }
      ],
      "stateMutability": "view",
      "type": "function",
      "constant": true
    },
    {
      "inputs": [
        {
          "internalType": "uint256",
          "name": "",
          "type": "uint256"
        }
      ],
      "name": "tenderIds",
      "outputs": [
        {
          "internalType": "string",
          "name": "",
          "type": "string"
        }
      ],
      "stateMutability": "view",
      "type": "function",
      "constant": true
    },
    {
      "inputs": [
        {
          "internalType": "string",
          "name": "",
          "type": "string"
        }
      ],
      "name": "tenders",
      "outputs": [
        {
          "internalType": "string",
          "name": "tenderId",
          "type": "string"
        },
        {
          "internalType": "string",
          "name": "tenderName",
          "type": "string"
        },
        {
          "internalType": "string",
          "name": "tenderType",
          "type": "string"
        },
        {
          "internalType": "uint256",
          "name": "bidSubmissionDeadline",
          "type": "uint256"
        },
        {
          "internalType": "uint256",
          "name": "contractSignDeadline",
          "type": "uint256"
        },
        {
          "internalType": "uint256",
          "name": "estimatedCost",
          "type": "uint256"
        },
        {
          "internalType": "string",
          "name": "tenderDetails",
          "type": "string"
        },
        {
          "internalType": "bool",
          "name": "isOpen",
          "type": "bool"
        },
        {
          "internalType": "bool",
          "name": "approved",
          "type": "bool"
        }
      ],
      "stateMutability": "view",
      "type": "function",
      "constant": true
    },
    {
      "inputs": [
        {
          "internalType": "string",
          "name": "_tenderName",
          "type": "string"
        },
        {
          "internalType": "string",
          "name": "_tenderType",
          "type": "string"
        },
        {
          "internalType": "uint256",
          "name": "_bidSubmissionDeadline",
          "type": "uint256"
        },
        {
          "internalType": "uint256",
          "name": "_contractSignDeadline",
          "type": "uint256"
        },
        {
          "internalType": "uint256",
          "name": "_estimatedCost",
          "type": "uint256"
        },
        {
          "internalType": "string",
          "name": "_tenderDetails",
          "type": "string"
        }
      ],
      "name": "createTender",
      "outputs": [],
      "stateMutability": "nonpayable",
      "type": "function"
    },
    {
      "inputs": [
        {
          "internalType": "string",
          "name": "_tenderId",
          "type": "string"
        }
      ],
      "name": "getTenderDetails",
      "outputs": [
        {
          "internalType": "string",
          "name": "tenderId",
          "type": "string"
        },
        {
          "internalType": "string",
          "name": "tenderName",
          "type": "string"
        },
        {
          "internalType": "string",
          "name": "tenderType",
          "type": "string"
        },
        {
          "internalType": "uint256",
          "name": "bidSubmissionDeadline",
          "type": "uint256"
        },
        {
          "internalType": "uint256",
          "name": "contractSignDeadline",
          "type": "uint256"
        },
        {
          "internalType": "uint256",
          "name": "estimatedCost",
          "type": "uint256"
        },
        {
          "internalType": "string",
          "name": "tenderDetails",
          "type": "string"
        },
        {
          "internalType": "bool",
          "name": "isOpen",
          "type": "bool"
        },
        {
          "internalType": "bool",
          "name": "approved",
          "type": "bool"
        }
      ],
      "stateMutability": "view",
      "type": "function",
      "constant": true
    },
    {
      "inputs": [],
      "name": "getAllTenderIds",
      "outputs": [
        {
          "internalType": "string[]",
          "name": "",
          "type": "string[]"
        }
      ],
      "stateMutability": "view",
      "type": "function",
      "constant": true
    },
    {
      "inputs": [],
      "name": "getAllTenderDetails",
      "outputs": [
        {
          "internalType": "string[]",
          "name": "",
          "type": "string[]"
        },
        {
          "internalType": "string[]",
          "name": "",
          "type": "string[]"
        },
        {
          "internalType": "string[]",
          "name": "",
          "type": "string[]"
        },
        {
          "internalType": "uint256[]",
          "name": "",
          "type": "uint256[]"
        },
        {
          "internalType": "uint256[]",
          "name": "",
          "type": "uint256[]"
        },
        {
          "internalType": "uint256[]",
          "name": "",
          "type": "uint256[]"
        },
        {
          "internalType": "string[]",
          "name": "",
          "type": "string[]"
        }
      ],
      "stateMutability": "view",
      "type": "function",
      "constant": true
    },
    {
      "inputs": [],
      "name": "getAllTenderStatus",
      "outputs": [
        {
          "internalType": "bool[]",
          "name": "",
          "type": "bool[]"
        },
        {
          "internalType": "bool[]",
          "name": "",
          "type": "bool[]"
        }
      ],
      "stateMutability": "view",
      "type": "function",
      "constant": true
    },
    {
      "inputs": [
        {
          "internalType": "string",
          "name": "_tenderId",
          "type": "string"
        },
        {
          "internalType": "uint256",
          "name": "_amount",
          "type": "uint256"
        },
        {
          "internalType": "uint256",
          "name": "_currentDate",
          "type": "uint256"
        },
        {
          "internalType": "address",
          "name": "_vendorId",
          "type": "address"
        }
      ],
      "name": "submitBid",
      "outputs": [],
      "stateMutability": "nonpayable",
      "type": "function"
    },
    {
      "inputs": [
        {
          "internalType": "string",
          "name": "_tenderId",
          "type": "string"
        },
        {
          "internalType": "address",
          "name": "_vendorAddress",
          "type": "address"
        }
      ],
      "name": "isBidder",
      "outputs": [
        {
          "internalType": "bool",
          "name": "",
          "type": "bool"
        }
      ],
      "stateMutability": "view",
      "type": "function",
      "constant": true
    },
    {
      "inputs": [
        {
          "internalType": "uint256",
          "name": "_i",
          "type": "uint256"
        }
      ],
      "name": "uintToString",
      "outputs": [
        {
          "internalType": "string",
          "name": "",
          "type": "string"
        }
      ],
      "stateMutability": "pure",
      "type": "function",
      "constant": true
    }
  ],
  "bytecode": "0x608060405234801561001057600080fd5b5033600360006101000a81548173ffffffffffffffffffffffffffffffffffffffff021916908373ffffffffffffffffffffffffffffffffffffffff160217905550612de6806100616000396000f3fe608060405234801561001057600080fd5b50600436106100cf5760003560e01c8063997b737f1161008c578063dff4460111610066578063dff446011461022b578063e17738871461025d578063e93956791461028d578063f851a440146102bd576100cf565b8063997b737f1461019c578063ac6cd0eb146101d4578063d79cfef01461020c576100cf565b8063174f7692146100d45780631f058776146100f2578063223088e51461011057806339c776b61461012c5780633bcf1ec81461015c5780638742261914610180575b600080fd5b6100dc6102db565b6040516100e99190611b6b565b60405180910390f35b6100fa6103b4565b6040516101079190611ba6565b60405180910390f35b61012a60048036038101906101259190611d36565b6103ba565b005b61014660048036038101906101419190611e17565b6105f6565b6040516101539190611e8e565b60405180910390f35b6101646106a2565b6040516101779796959493929190611f6e565b60405180910390f35b61019a6004803603810190610195919061206c565b610c87565b005b6101b660048036038101906101b191906120ef565b611007565b6040516101cb99989796959493929190612153565b60405180910390f35b6101ee60048036038101906101e991906120ef565b6112a5565b60405161020399989796959493929190612153565b60405180910390f35b6102146115bb565b6040516102229291906122ba565b60405180910390f35b610245600480360381019061024091906122f1565b611736565b6040516102549392919061235c565b60405180910390f35b610277600480360381019061027291906122f1565b6117a3565b6040516102849190612393565b60405180910390f35b6102a760048036038101906102a29190611e17565b611890565b6040516102b49190611e8e565b60405180910390f35b6102c56119f3565b6040516102d291906123ae565b60405180910390f35b60606004805480602002602001604051908101604052809291908181526020016000905b828210156103ab57838290600052602060002001805461031e906123f8565b80601f016020809104026020016040519081016040528092919081815260200182805461034a906123f8565b80156103975780601f1061036c57610100808354040283529160200191610397565b820191906000526020600020905b81548152906001019060200180831161037a57829003601f168201915b5050505050815260200190600101906102ff565b50505050905090565b60025481565b600360009054906101000a900473ffffffffffffffffffffffffffffffffffffffff1673ffffffffffffffffffffffffffffffffffffffff163373ffffffffffffffffffffffffffffffffffffffff161461044a576040517f08c379a00000000000000000000000000000000000000000000000000000000081526004016104419061249b565b60405180910390fd5b82841061048c576040517f08c379a000000000000000000000000000000000000000000000000000000000815260040161048390612507565b60405180910390fd5b6002600081548092919061049f90612556565b919050555060006104b1600254611890565b6040516020016104c19190612626565b604051602081830303815290604052905060008542109050600080836040516104ea9190612648565b908152602001604051809103902090508281600001908161050b919061280b565b508881600101908161051d919061280b565b508781600201908161052f919061280b565b508681600301819055508581600401819055508481600501819055508381600601908161055c919061280b565b50818160070160006101000a81548160ff0219169083151502179055506004839080600181540180825580915050600190039060005260206000200160009091909190915090816105ad919061280b565b507f1b6325a4a8d6fd29ce3547cc18e622e75eb7bab7f230016411c705e3cc5c769b838a8a856040516105e394939291906128dd565b60405180910390a1505050505050505050565b6004818154811061060657600080fd5b906000526020600020016000915090508054610621906123f8565b80601f016020809104026020016040519081016040528092919081815260200182805461064d906123f8565b801561069a5780601f1061066f5761010080835404028352916020019161069a565b820191906000526020600020905b81548152906001019060200180831161067d57829003601f168201915b505050505081565b6060806060806060806060600060025467ffffffffffffffff8111156106cb576106ca611bdf565b5b6040519080825280602002602001820160405280156106fe57816020015b60608152602001906001900390816106e95790505b509050600060025467ffffffffffffffff81111561071f5761071e611bdf565b5b60405190808252806020026020018201604052801561075257816020015b606081526020019060019003908161073d5790505b509050600060025467ffffffffffffffff81111561077357610772611bdf565b5b6040519080825280602002602001820160405280156107a657816020015b60608152602001906001900390816107915790505b509050600060025467ffffffffffffffff8111156107c7576107c6611bdf565b5b6040519080825280602002602001820160405280156107f55781602001602082028036833780820191505090505b509050600060025467ffffffffffffffff81111561081657610815611bdf565b5b6040519080825280602002602001820160405280156108445781602001602082028036833780820191505090505b509050600060025467ffffffffffffffff81111561086557610864611bdf565b5b6040519080825280602002602001820160405280156108935781602001602082028036833780820191505090505b509050600060025467ffffffffffffffff8111156108b4576108b3611bdf565b5b6040519080825280602002602001820160405280156108e757816020015b60608152602001906001900390816108d25790505b50905060005b600254811015610c61576000806004838154811061090e5761090d612937565b5b9060005260206000200160405161092591906129e9565b90815260200160405180910390209050806000018054610944906123f8565b80601f0160208091040260200160405190810160405280929190818152602001828054610970906123f8565b80156109bd5780601f10610992576101008083540402835291602001916109bd565b820191906000526020600020905b8154815290600101906020018083116109a057829003601f168201915b50505050508983815181106109d5576109d4612937565b5b60200260200101819052508060010180546109ef906123f8565b80601f0160208091040260200160405190810160405280929190818152602001828054610a1b906123f8565b8015610a685780601f10610a3d57610100808354040283529160200191610a68565b820191906000526020600020905b815481529060010190602001808311610a4b57829003601f168201915b5050505050888381518110610a8057610a7f612937565b5b6020026020010181905250806002018054610a9a906123f8565b80601f0160208091040260200160405190810160405280929190818152602001828054610ac6906123f8565b8015610b135780601f10610ae857610100808354040283529160200191610b13565b820191906000526020600020905b815481529060010190602001808311610af657829003601f168201915b5050505050878381518110610b2b57610b2a612937565b5b60200260200101819052508060030154868381518110610b4e57610b4d612937565b5b6020026020010181815250508060040154858381518110610b7257610b71612937565b5b6020026020010181815250508060050154848381518110610b9657610b95612937565b5b602002602001018181525050806006018054610bb1906123f8565b80601f0160208091040260200160405190810160405280929190818152602001828054610bdd906123f8565b8015610c2a5780601f10610bff57610100808354040283529160200191610c2a565b820191906000526020600020905b815481529060010190602001808311610c0d57829003601f168201915b5050505050838381518110610c4257610c41612937565b5b6020026020010181905250508080610c5990612556565b9150506108ed565b50868686868686869d509d509d509d509d509d509d505050505050505090919293949596565b60008085604051610c989190612648565b90815260200160405180910390206000018054610cb4906123f8565b905011610cf6576040517f08c379a0000000000000000000000000000000000000000000000000000000008152600401610ced90612a4c565b60405180910390fd5b600084604051610d069190612648565b908152602001604051809103902060070160009054906101000a900460ff16610d64576040517f08c379a0000000000000000000000000000000000000000000000000000000008152600401610d5b90612ab8565b60405180910390fd5b600084604051610d749190612648565b9081526020016040518091039020600b0160009054906101000a900460ff1615610dd3576040517f08c379a0000000000000000000000000000000000000000000000000000000008152600401610dca90612b24565b60405180910390fd5b6000600185604051610de59190612648565b908152602001604051809103902060003373ffffffffffffffffffffffffffffffffffffffff1673ffffffffffffffffffffffffffffffffffffffff1681526020019081526020016000206000015414610e74576040517f08c379a0000000000000000000000000000000000000000000000000000000008152600401610e6b90612bb6565b60405180910390fd5b600084604051610e849190612648565b908152602001604051809103902060030154821115610ed8576040517f08c379a0000000000000000000000000000000000000000000000000000000008152600401610ecf90612c48565b60405180910390fd5b60405180606001604052808481526020018381526020018273ffffffffffffffffffffffffffffffffffffffff16815250600185604051610f199190612648565b908152602001604051809103902060003373ffffffffffffffffffffffffffffffffffffffff1673ffffffffffffffffffffffffffffffffffffffff168152602001908152602001600020600082015181600001556020820151816001015560408201518160020160006101000a81548173ffffffffffffffffffffffffffffffffffffffff021916908373ffffffffffffffffffffffffffffffffffffffff1602179055509050507f1e1e4467d6a5f52099a3115ec4a77c018283f8adaeb9282a744163c2fda3cb098433858585604051610ff9959493929190612c68565b60405180910390a150505050565b600081805160208101820180518482526020830160208501208183528095505050505050600091509050806000018054611040906123f8565b80601f016020809104026020016040519081016040528092919081815260200182805461106c906123f8565b80156110b95780601f1061108e576101008083540402835291602001916110b9565b820191906000526020600020905b81548152906001019060200180831161109c57829003601f168201915b5050505050908060010180546110ce906123f8565b80601f01602080910402602001604051908101604052809291908181526020018280546110fa906123f8565b80156111475780601f1061111c57610100808354040283529160200191611147565b820191906000526020600020905b81548152906001019060200180831161112a57829003601f168201915b50505050509080600201805461115c906123f8565b80601f0160208091040260200160405190810160405280929190818152602001828054611188906123f8565b80156111d55780601f106111aa576101008083540402835291602001916111d5565b820191906000526020600020905b8154815290600101906020018083116111b857829003601f168201915b5050505050908060030154908060040154908060050154908060060180546111fc906123f8565b80601f0160208091040260200160405190810160405280929190818152602001828054611228906123f8565b80156112755780601f1061124a57610100808354040283529160200191611275565b820191906000526020600020905b81548152906001019060200180831161125857829003601f168201915b5050505050908060070160009054906101000a900460ff169080600b0160009054906101000a900460ff16905089565b6060806060600080600060606000806000808b6040516112c59190612648565b9081526020016040518091039020905060008160010180546112e6906123f8565b905011611328576040517f08c379a000000000000000000000000000000000000000000000000000000000815260040161131f90612a4c565b60405180910390fd5b806000018160010182600201836003015484600401548560050154866006018760070160009054906101000a900460ff1688600b0160009054906101000a900460ff16888054611377906123f8565b80601f01602080910402602001604051908101604052809291908181526020018280546113a3906123f8565b80156113f05780601f106113c5576101008083540402835291602001916113f0565b820191906000526020600020905b8154815290600101906020018083116113d357829003601f168201915b50505050509850878054611403906123f8565b80601f016020809104026020016040519081016040528092919081815260200182805461142f906123f8565b801561147c5780601f106114515761010080835404028352916020019161147c565b820191906000526020600020905b81548152906001019060200180831161145f57829003601f168201915b5050505050975086805461148f906123f8565b80601f01602080910402602001604051908101604052809291908181526020018280546114bb906123f8565b80156115085780601f106114dd57610100808354040283529160200191611508565b820191906000526020600020905b8154815290600101906020018083116114eb57829003601f168201915b5050505050965082805461151b906123f8565b80601f0160208091040260200160405190810160405280929190818152602001828054611547906123f8565b80156115945780601f1061156957610100808354040283529160200191611594565b820191906000526020600020905b81548152906001019060200180831161157757829003601f168201915b50505050509250995099509950995099509950995099509950509193959799909294969850565b606080600060025467ffffffffffffffff8111156115dc576115db611bdf565b5b60405190808252806020026020018201604052801561160a5781602001602082028036833780820191505090505b509050600060025467ffffffffffffffff81111561162b5761162a611bdf565b5b6040519080825280602002602001820160405280156116595781602001602082028036833780820191505090505b50905060005b60025481101561172957600080600483815481106116805761167f612937565b5b9060005260206000200160405161169791906129e9565b908152602001604051809103902090508060070160009054906101000a900460ff168483815181106116cc576116cb612937565b5b60200260200101901515908115158152505080600b0160009054906101000a900460ff1683838151811061170357611702612937565b5b60200260200101901515908115158152505050808061172190612556565b91505061165f565b5081819350935050509091565b600182805160208101820180518482526020830160208501208183528095505050505050602052806000526040600020600091509150508060000154908060010154908060020160009054906101000a900473ffffffffffffffffffffffffffffffffffffffff16905083565b600080600090505b6000846040516117bb9190612648565b908152602001604051809103902060090180549050811015611884578273ffffffffffffffffffffffffffffffffffffffff166000856040516117fe9190612648565b9081526020016040518091039020600901828154811061182157611820612937565b5b9060005260206000200160009054906101000a900473ffffffffffffffffffffffffffffffffffffffff1673ffffffffffffffffffffffffffffffffffffffff160361187157600191505061188a565b808061187c90612556565b9150506117ab565b50600090505b92915050565b6060600082036118d7576040518060400160405280600181526020017f300000000000000000000000000000000000000000000000000000000000000081525090506119ee565b600082905060005b600082146119095780806118f290612556565b915050600a826119029190612cf1565b91506118df565b60008167ffffffffffffffff81111561192557611924611bdf565b5b6040519080825280601f01601f1916602001820160405280156119575781602001600182028036833780820191505090505b50905060008290505b600086146119e657600a866119759190612d22565b60306119819190612d53565b60f81b828261198f90612d87565b925082815181106119a3576119a2612937565b5b60200101907effffffffffffffffffffffffffffffffffffffffffffffffffffffffffffff1916908160001a905350600a866119df9190612cf1565b9550611960565b819450505050505b919050565b600360009054906101000a900473ffffffffffffffffffffffffffffffffffffffff1681565b600081519050919050565b600082825260208201905092915050565b6000819050602082019050919050565b600081519050919050565b600082825260208201905092915050565b60005b83811015611a7f578082015181840152602081019050611a64565b60008484015250505050565b6000601f19601f8301169050919050565b6000611aa782611a45565b611ab18185611a50565b9350611ac1818560208601611a61565b611aca81611a8b565b840191505092915050565b6000611ae18383611a9c565b905092915050565b6000602082019050919050565b6000611b0182611a19565b611b0b8185611a24565b935083602082028501611b1d85611a35565b8060005b85811015611b595784840389528151611b3a8582611ad5565b9450611b4583611ae9565b925060208a01995050600181019050611b21565b50829750879550505050505092915050565b60006020820190508181036000830152611b858184611af6565b905092915050565b6000819050919050565b611ba081611b8d565b82525050565b6000602082019050611bbb6000830184611b97565b92915050565b6000604051905090565b600080fd5b600080fd5b600080fd5b600080fd5b7f4e487b7100000000000000000000000000000000000000000000000000000000600052604160045260246000fd5b611c1782611a8b565b810181811067ffffffffffffffff82111715611c3657611c35611bdf565b5b80604052505050565b6000611c49611bc1565b9050611c558282611c0e565b919050565b600067ffffffffffffffff821115611c7557611c74611bdf565b5b611c7e82611a8b565b9050602081019050919050565b82818337600083830152505050565b6000611cad611ca884611c5a565b611c3f565b905082815260208101848484011115611cc957611cc8611bda565b5b611cd4848285611c8b565b509392505050565b600082601f830112611cf157611cf0611bd5565b5b8135611d01848260208601611c9a565b91505092915050565b611d1381611b8d565b8114611d1e57600080fd5b50565b600081359050611d3081611d0a565b92915050565b60008060008060008060c08789031215611d5357611d52611bcb565b5b600087013567ffffffffffffffff811115611d7157611d70611bd0565b5b611d7d89828a01611cdc565b965050602087013567ffffffffffffffff811115611d9e57611d9d611bd0565b5b611daa89828a01611cdc565b9550506040611dbb89828a01611d21565b9450506060611dcc89828a01611d21565b9350506080611ddd89828a01611d21565b92505060a087013567ffffffffffffffff811115611dfe57611dfd611bd0565b5b611e0a89828a01611cdc565b9150509295509295509295565b600060208284031215611e2d57611e2c611bcb565b5b6000611e3b84828501611d21565b91505092915050565b600082825260208201905092915050565b6000611e6082611a45565b611e6a8185611e44565b9350611e7a818560208601611a61565b611e8381611a8b565b840191505092915050565b60006020820190508181036000830152611ea88184611e55565b905092915050565b600081519050919050565b600082825260208201905092915050565b6000819050602082019050919050565b611ee581611b8d565b82525050565b6000611ef78383611edc565b60208301905092915050565b6000602082019050919050565b6000611f1b82611eb0565b611f258185611ebb565b9350611f3083611ecc565b8060005b83811015611f61578151611f488882611eeb565b9750611f5383611f03565b925050600181019050611f34565b5085935050505092915050565b600060e0820190508181036000830152611f88818a611af6565b90508181036020830152611f9c8189611af6565b90508181036040830152611fb08188611af6565b90508181036060830152611fc48187611f10565b90508181036080830152611fd88186611f10565b905081810360a0830152611fec8185611f10565b905081810360c08301526120008184611af6565b905098975050505050505050565b600073ffffffffffffffffffffffffffffffffffffffff82169050919050565b60006120398261200e565b9050919050565b6120498161202e565b811461205457600080fd5b50565b60008135905061206681612040565b92915050565b6000806000806080858703121561208657612085611bcb565b5b600085013567ffffffffffffffff8111156120a4576120a3611bd0565b5b6120b087828801611cdc565b94505060206120c187828801611d21565b93505060406120d287828801611d21565b92505060606120e387828801612057565b91505092959194509250565b60006020828403121561210557612104611bcb565b5b600082013567ffffffffffffffff81111561212357612122611bd0565b5b61212f84828501611cdc565b91505092915050565b60008115159050919050565b61214d81612138565b82525050565b600061012082019050818103600083015261216e818c611e55565b90508181036020830152612182818b611e55565b90508181036040830152612196818a611e55565b90506121a56060830189611b97565b6121b26080830188611b97565b6121bf60a0830187611b97565b81810360c08301526121d18186611e55565b90506121e060e0830185612144565b6121ee610100830184612144565b9a9950505050505050505050565b600081519050919050565b600082825260208201905092915050565b6000819050602082019050919050565b61223181612138565b82525050565b60006122438383612228565b60208301905092915050565b6000602082019050919050565b6000612267826121fc565b6122718185612207565b935061227c83612218565b8060005b838110156122ad5781516122948882612237565b975061229f8361224f565b925050600181019050612280565b5085935050505092915050565b600060408201905081810360008301526122d4818561225c565b905081810360208301526122e8818461225c565b90509392505050565b6000806040838503121561230857612307611bcb565b5b600083013567ffffffffffffffff81111561232657612325611bd0565b5b61233285828601611cdc565b925050602061234385828601612057565b9150509250929050565b6123568161202e565b82525050565b60006060820190506123716000830186611b97565b61237e6020830185611b97565b61238b604083018461234d565b949350505050565b60006020820190506123a86000830184612144565b92915050565b60006020820190506123c3600083018461234d565b92915050565b7f4e487b7100000000000000000000000000000000000000000000000000000000600052602260045260246000fd5b6000600282049050600182168061241057607f821691505b602082108103612423576124226123c9565b5b50919050565b7f4f6e6c792061646d696e2063616e20706572666f726d2074686973206163746960008201527f6f6e000000000000000000000000000000000000000000000000000000000000602082015250565b6000612485602283611e44565b915061249082612429565b604082019050919050565b600060208201905081810360008301526124b481612478565b9050919050565b7f496e76616c696420646561646c696e6573000000000000000000000000000000600082015250565b60006124f1601183611e44565b91506124fc826124bb565b602082019050919050565b60006020820190508181036000830152612520816124e4565b9050919050565b7f4e487b7100000000000000000000000000000000000000000000000000000000600052601160045260246000fd5b600061256182611b8d565b91507fffffffffffffffffffffffffffffffffffffffffffffffffffffffffffffffff820361259357612592612527565b5b600182019050919050565b600081905092915050565b7f5400000000000000000000000000000000000000000000000000000000000000600082015250565b60006125df60018361259e565b91506125ea826125a9565b600182019050919050565b600061260082611a45565b61260a818561259e565b935061261a818560208601611a61565b80840191505092915050565b6000612631826125d2565b915061263d82846125f5565b915081905092915050565b600061265482846125f5565b915081905092915050565b60008190508160005260206000209050919050565b60006020601f8301049050919050565b600082821b905092915050565b6000600883026126c17fffffffffffffffffffffffffffffffffffffffffffffffffffffffffffffffff82612684565b6126cb8683612684565b95508019841693508086168417925050509392505050565b6000819050919050565b60006127086127036126fe84611b8d565b6126e3565b611b8d565b9050919050565b6000819050919050565b612722836126ed565b61273661272e8261270f565b848454612691565b825550505050565b600090565b61274b61273e565b612756818484612719565b505050565b5b8181101561277a5761276f600082612743565b60018101905061275c565b5050565b601f8211156127bf576127908161265f565b61279984612674565b810160208510156127a8578190505b6127bc6127b485612674565b83018261275b565b50505b505050565b600082821c905092915050565b60006127e2600019846008026127c4565b1980831691505092915050565b60006127fb83836127d1565b9150826002028217905092915050565b61281482611a45565b67ffffffffffffffff81111561282d5761282c611bdf565b5b61283782546123f8565b61284282828561277e565b600060209050601f8311600181146128755760008415612863578287015190505b61286d85826127ef565b8655506128d5565b601f1984166128838661265f565b60005b828110156128ab57848901518255600182019150602085019450602081019050612886565b868310156128c857848901516128c4601f8916826127d1565b8355505b6001600288020188555050505b505050505050565b600060808201905081810360008301526128f78187611e55565b9050818103602083015261290b8186611e55565b9050818103604083015261291f8185611e55565b905061292e6060830184612144565b95945050505050565b7f4e487b7100000000000000000000000000000000000000000000000000000000600052603260045260246000fd5b60008154612973816123f8565b61297d818661259e565b9450600182166000811461299857600181146129ad576129e0565b60ff19831686528115158202860193506129e0565b6129b68561265f565b60005b838110156129d8578154818901526001820191506020810190506129b9565b838801955050505b50505092915050565b60006129f58284612966565b915081905092915050565b7f54656e646572206e6f7420666f756e6400000000000000000000000000000000600082015250565b6000612a36601083611e44565b9150612a4182612a00565b602082019050919050565b60006020820190508181036000830152612a6581612a29565b9050919050565b7f54656e646572206973206e6f74206f70656e20666f722062696464696e670000600082015250565b6000612aa2601e83611e44565b9150612aad82612a6c565b602082019050919050565b60006020820190508181036000830152612ad181612a95565b9050919050565b7f54656e64657220697320616c726561647920617070726f766564000000000000600082015250565b6000612b0e601a83611e44565b9150612b1982612ad8565b602082019050919050565b60006020820190508181036000830152612b3d81612b01565b9050919050565b7f56656e646f722068617320616c7265616479207375626d69747465642061206260008201527f6964000000000000000000000000000000000000000000000000000000000000602082015250565b6000612ba0602283611e44565b9150612bab82612b44565b604082019050919050565b60006020820190508181036000830152612bcf81612b93565b9050919050565b7f426964207375626d697373696f6e20646561646c696e6520686173207061737360008201527f6564000000000000000000000000000000000000000000000000000000000000602082015250565b6000612c32602283611e44565b9150612c3d82612bd6565b604082019050919050565b60006020820190508181036000830152612c6181612c25565b9050919050565b600060a0820190508181036000830152612c828188611e55565b9050612c91602083018761234d565b612c9e6040830186611b97565b612cab6060830185611b97565b612cb8608083018461234d565b9695505050505050565b7f4e487b7100000000000000000000000000000000000000000000000000000000600052601260045260246000fd5b6000612cfc82611b8d565b9150612d0783611b8d565b925082612d1757612d16612cc2565b5b828204905092915050565b6000612d2d82611b8d565b9150612d3883611b8d565b925082612d4857612d47612cc2565b5b828206905092915050565b6000612d5e82611b8d565b9150612d6983611b8d565b9250828201905080821115612d8157612d80612527565b5b92915050565b6000612d9282611b8d565b915060008203612da557612da4612527565b5b60018203905091905056fea26469706673582212209829dd43aff14f9a2a4173b6e088946337f4c9114727e9bdd63830bfbdf799b764736f6c63430008130033",
  "immutableReferences": {},
  "source": "// SPDX-License-Identifier: MIT\r\npragma solidity ^0.8.19;\r\n\r\ncontract TenderManagement {\r\n    struct Bid {\r\n         uint256 amount;\r\n         uint256 bidDate;\r\n         address vendorId;\r\n    }\r\n\r\n    struct Tender {\r\n        string tenderId;\r\n        string tenderName;\r\n        string tenderType;\r\n        uint256 bidSubmissionDeadline;\r\n        uint256 contractSignDeadline;\r\n        uint256 estimatedCost;\r\n        string tenderDetails;\r\n      \r\n        bool isOpen;\r\n        mapping(address => uint256) bids;\r\n        address[] bidders;\r\n        mapping(address => bool) vendors;\r\n        bool approved;\r\n        mapping(address => bool) paid;\r\n    }\r\n\r\n    mapping(string => Tender) public tenders;\r\n    // Define mapping to store bids for each tender\r\n    mapping(string => mapping(address => Bid)) public bids;\r\n    uint256 public tenderCount;\r\n    address public admin;\r\n    string[] public tenderIds;\r\n    event TenderCreated(string tenderId, string tenderName, string tenderType, bool isOpen);\r\n    event BidSubmitted(string tenderId, address bidder, uint256 amount, uint256 bidDate, address vendorId);\r\n    constructor() {\r\n        admin = msg.sender;\r\n    }\r\n\r\n    modifier onlyAdmin() {\r\n        require(msg.sender == admin, \"Only admin can perform this action\");\r\n        _;\r\n    }\r\n\r\n    function createTender(\r\n        string memory _tenderName,\r\n        string memory _tenderType,\r\n        uint256 _bidSubmissionDeadline,\r\n        uint256 _contractSignDeadline,\r\n        uint256 _estimatedCost,\r\n        string memory _tenderDetails\r\n    ) public onlyAdmin {\r\n        require(_bidSubmissionDeadline < _contractSignDeadline, \"Invalid deadlines\");\r\n\r\n        tenderCount++;\r\n        \r\n        string memory tenderId = string(abi.encodePacked(\"T\", uintToString(tenderCount)));\r\n\r\n        bool isOpen = block.timestamp < _bidSubmissionDeadline;\r\n\r\n        Tender storage newTender = tenders[tenderId];\r\n        newTender.tenderId = tenderId;\r\n        newTender.tenderName = _tenderName;\r\n        newTender.tenderType = _tenderType;\r\n        newTender.bidSubmissionDeadline = _bidSubmissionDeadline;\r\n        newTender.contractSignDeadline = _contractSignDeadline;\r\n        newTender.estimatedCost = _estimatedCost;\r\n        newTender.tenderDetails = _tenderDetails;\r\n       \r\n        newTender.isOpen = isOpen;\r\n        tenderIds.push(tenderId);\r\n        emit TenderCreated(tenderId, _tenderName, _tenderType, isOpen);\r\n    }\r\n\r\n    function getTenderDetails(string memory _tenderId) public view returns (\r\n        string memory tenderId,\r\n        string memory tenderName,\r\n        string memory tenderType,\r\n        uint256 bidSubmissionDeadline,\r\n        uint256 contractSignDeadline,\r\n        uint256 estimatedCost,\r\n        string memory tenderDetails,\r\n        bool isOpen,\r\n        bool approved\r\n    ) {\r\n        Tender storage tender = tenders[_tenderId];\r\n        require(bytes(tender.tenderName).length > 0, \"Tender not found\");\r\n\r\n        return (\r\n            tender.tenderId,\r\n            tender.tenderName,\r\n            tender.tenderType,\r\n            tender.bidSubmissionDeadline,\r\n            tender.contractSignDeadline,\r\n            tender.estimatedCost,\r\n            tender.tenderDetails,\r\n            tender.isOpen,\r\n            tender.approved\r\n        );\r\n    }\r\n\r\n    function getAllTenderIds() public view returns (string[] memory) {\r\n        return tenderIds;\r\n    }\r\n\r\n function getAllTenderDetails() public view returns (\r\n    string[] memory,\r\n    string[] memory,\r\n    string[] memory,\r\n    uint256[] memory,\r\n    uint256[] memory,\r\n    uint256[] memory,\r\n    string[] memory\r\n) {\r\n    string[] memory allTenderIds = new string[](tenderCount);\r\n    string[] memory tenderNames = new string[](tenderCount);\r\n    string[] memory tenderTypes = new string[](tenderCount);\r\n    uint256[] memory bidSubmissionDeadlines = new uint256[](tenderCount);\r\n    uint256[] memory contractSignDeadlines = new uint256[](tenderCount);\r\n    uint256[] memory estimatedCosts = new uint256[](tenderCount);\r\n    string[] memory tenderDetails = new string[](tenderCount);\r\n\r\n    for (uint256 i = 0; i < tenderCount; i++) {\r\n        Tender storage tender = tenders[tenderIds[i]];\r\n        allTenderIds[i] = tender.tenderId;\r\n        tenderNames[i] = tender.tenderName;\r\n        tenderTypes[i] = tender.tenderType;\r\n        bidSubmissionDeadlines[i] = tender.bidSubmissionDeadline;\r\n        contractSignDeadlines[i] = tender.contractSignDeadline;\r\n        estimatedCosts[i] = tender.estimatedCost;\r\n        tenderDetails[i] = tender.tenderDetails;\r\n    }\r\n\r\n    return (allTenderIds, tenderNames, tenderTypes, bidSubmissionDeadlines, contractSignDeadlines, estimatedCosts, tenderDetails);\r\n}\r\n\r\n\r\nfunction getAllTenderStatus() public view returns (\r\n    bool[] memory,\r\n    bool[] memory\r\n) {\r\n    bool[] memory isOpens = new bool[](tenderCount);\r\n    bool[] memory approved = new bool[](tenderCount);\r\n\r\n    for (uint256 i = 0; i < tenderCount; i++) {\r\n        Tender storage tender = tenders[tenderIds[i]];\r\n        isOpens[i] = tender.isOpen;\r\n        approved[i] = tender.approved;\r\n    }\r\n\r\n    return (isOpens, approved);\r\n}\r\nfunction submitBid(string memory _tenderId, uint256 _amount, uint256 _currentDate, address _vendorId) public {\r\n    require(bytes(tenders[_tenderId].tenderId).length > 0, \"Tender not found\");\r\n    require(tenders[_tenderId].isOpen, \"Tender is not open for bidding\");\r\n    require(!tenders[_tenderId].approved, \"Tender is already approved\");\r\n    require(bids[_tenderId][msg.sender].amount == 0, \"Vendor has already submitted a bid\");\r\n    require(_currentDate <= tenders[_tenderId].bidSubmissionDeadline, \"Bid submission deadline has passed\");\r\n   \r\n    // Add the bid amount, current date, and vendor ID to the bids mapping for the sender\r\n    bids[_tenderId][msg.sender] = Bid({\r\n        amount: _amount,\r\n        bidDate: _currentDate,\r\n        vendorId: _vendorId\r\n    });\r\n\r\n    // Emit an event to indicate that a bid has been submitted\r\n    emit BidSubmitted(_tenderId, msg.sender, _amount, _currentDate, _vendorId);\r\n}\r\n\r\nfunction isBidder(string memory _tenderId, address _vendorAddress) public view returns (bool) {\r\n    for (uint256 i = 0; i < tenders[_tenderId].bidders.length; i++) {\r\n        if (tenders[_tenderId].bidders[i] == _vendorAddress) {\r\n            return true;\r\n        }\r\n    }\r\n    return false;\r\n}\r\n\r\n\r\n    function uintToString(uint256 _i) public pure returns (string memory) {\r\n        if (_i == 0) {\r\n            return \"0\";\r\n        }\r\n        uint256 j = _i;\r\n        uint256 len = 0;\r\n        while (j != 0) {\r\n            len++;\r\n            j /= 10;\r\n        }\r\n        bytes memory bstr = new bytes(len);\r\n        uint256 k = len;\r\n        while (_i != 0) {\r\n            bstr[--k] = bytes1(uint8(48 + _i % 10));\r\n            _i /= 10;\r\n        }\r\n        return string(bstr);\r\n    }\r\n}\r\n",
  "sourcePath": "C:\\Users\\Santhoshkumar R\\Desktop\\Tender_Management_System\\backend\\contracts\\TenderManagement.sol",
  "compiler": {
    "name": "solc",
    "version": "0.8.19+commit.7dd6d404.Emscripten.clang"
  },
  "schemaVersion": "3.4.16",
  "updatedAt": "2024-04-24T14:49:07.011Z",
  "networkType": "ethereum",
  "devdoc": {
    "kind": "dev",
    "methods": {},
    "version": 1
  },
  "userdoc": {
    "kind": "user",
    "methods": {},
    "version": 1
  }
}